:020000040800F2
:100000000024002031270008392700083B2700087A
:100010003D2700083F270008412700080000000096
:10002000000000000000000000000000432700085E
:10003000452700080000000047270008492700085E
:100040004B2700084B2700084B2700084B270008C8
:100050004B2700084B2700084B2700084B270008B8
:100060004B2700084B2700084B2700084B270008A8
:100070004B2700084B2700084B2700084B27000898
:100080004B2700084B2700084B2700084B27000888
:100090004B2700084B2700084B2700084B27000878
:1000A0004B2700084B2700084B2700084B27000868
:1000B0004B270008812400084B2700084B27000825
:1000C0004B2700084B2700084B2700084B27000848
:1000D0004B2700084B2700084B2700084B27000838
:1000E0004B2700084B2700084B27000800F002F8B8
:1000F00000F05EF80AA090E8000C82448344AAF164
:100100000107DA4501D100F053F8AFF2090EBAE861
:100110000F0013F0010F18BFFB1A43F0010318473B
:100120009C9D0000BC9D000010F8013B0A4413F0A8
:10013000030408BF10F8014B1D1108BF10F8015B44
:10014000641E05D010F8016B641E01F8016BF9D133
:10015000002D15D010F8014B03F00C030C2BA1EB74
:1001600004040ABF10F8013BA4EB8314A4EB03249E
:1001700005F1010314F8016B5B1E01F8016BF9D561
:10018000914238BF10F8013BD1D3704700230024BF
:1001900000250026103A28BF78C1FBD8520728BF97
:1001A00030C148BF0B6070471FB51FBD10B510BDF3
:1001B00008F045FF1146FFF7F7FF02F05EFA08F07E
:1001C00063FF03B4FFF7F2FF03BC08F067FF000012
:1001D00008B50020FE490861C8601420486100206D
:1001E0008861C8610846006840F001000860084660
:1001F0004068F8490840F649486008460068F649F2
:100200000840F34908600846006820F48020086030
:100210000846406820F4FE004860002088601D20E9
:100220008DF8000000208DF8010003208DF80200F9
:1002300001208DF80300684605F091F908BD70B5FE
:1002400004460025FFF7C4FFE148006840F4803011
:10025000DF49086000BFDE480068400C0028FAD083
:100260004FF48060DA494860A01EC4B20846406876
:1002700040EA844048600846406840F48030486066
:10028000D648006840F03200D4490860D048006881
:1002900040F08070CE49086000BFCD480068400E35
:1002A0000028FAD0CA48406840F00200C8494860B7
:1002B00005E0C7484068C0F3870505F00305022D37
:1002C000F7D170BD10B5C6480078C2114FF4005187
:1002D000C44803F0AEFBC2480078C043C049087070
:1002E00010BD10B5F0234FF4A0720021084602F0B3
:1002F000F0FB01221103BB4803F09BFB00BF01216F
:10030000B84803F036FA0128F9D000222021B54878
:1003100003F08FFB01222021B24803F08AFB012267
:100320000221B04803F085FB00BF0121AD4803F076
:1003300020FA0028F9D000BF0121AA4803F019FAD9
:100340000128F9D000220221A64803F072FB02F036
:100350004DFF0020A449086035E00020A349086053
:1003600027E010209F494861A1480068A149088002
:1003700010209C49086148619D480068C0B29E49B0
:1003800008801020974908619B480088994909789E
:1003900040EA012099490880084600889849086089
:1003A000C81490494861086190480068401C8F4912
:1003B00008608E480068B0F5A07FD2D38A480068F4
:1003C000401C8949086088480068F028C5D310BDE2
:1003D0002DE9FC5F0446E012C0EB00201F2190FBDA
:1003E000F1F0C5B2C4F34510C0EB00203F2190FBF3
:1003F000F1F0C6B204F01F00C0EB00201F2190FBFB
:10040000F1F0C7B2284608F0EDFF8246284608F012
:10041000E9FF0190304608F0E5FF8046019909F0B8
:10042000F5F803D8304608F0DDFF8246384608F07C
:10043000D9FF8046514609F0E9F803D8384608F05C
:10044000D1FF8246304608F0CDFF8046514608F085
:10045000DDFF03D8304608F0C5FF0190384608F0AC
:10046000C1FF8046019908F0D1FF03D8384608F053
:10047000B9FF01905146634808F0FCFF804662498D
:1004800008F082FE614908605046019909F0F0F8D1
:1004900081465C4908F0EEFF8046514608F074FE44
:1004A0005B490860284608F09DFF8046514608F0E9
:1004B0002DFF11D15046019909F0DAF88146F01B61
:1004C00008F078FF8346494608F05EFE80465149B1
:1004D00008F0D0FF50490860304608F083FF80469E
:1004E000514608F013FF15D15046019909F0C0F8A4
:1004F0008346781B08F05EFF5946009008F044FEE2
:100500008146444908F0B6FF8046444908F0CEFDD4
:1005100041490860384608F065FF8046514608F0BA
:10052000F5FE15D15046019909F0A2F88346A81BA3
:1005300008F040FF5946009008F026FE81463549F4
:1005400008F098FF8046364908F0B0FD324908604F
:1005500000213148006808F059FF06D231492E4881
:10056000006809F085F82C490860BDE8FC9F10B5CB
:10057000F0234FF4A0720021084602F0AAFA0122EB
:100580001103184803F055FA00BF0121154803F084
:10059000F0F80128F9D000222021124803F049FA8E
:1005A000012220210F4803F044FA012202210D48C4
:1005B00003F03FFA00BF01210A4803F0DAF80028EF
:1005C000F9D000BF0121074803F0D3F801282BE040
:1005D000001002400000FFF8FFFFF6FE002002407E
:1005E000010000200010014004000020080000204D
:1005F000080801400C0000200E0000201000002020
:100600000C0C01400000C84200007F43280000207D
:100610002C00002000007042300000200000F0425A
:10062000000070430000B443CCD000220221F64801
:1006300003F0FFF902F0DAFD0020F449086081E0E0
:100640000020F349086074E01020EF494861F14848
:100650000068F14908801020EB4908614861ED48C5
:100660000068C0B2ED4908801020E7490861EB48F6
:100670000088E949097840EA0120E9490880E3480F
:100680000068642818D1E2480068FA2814D10846A6
:100690000088C012E3490870E1480088C0F34510A3
:1006A000E1490870DE48007800F01F00DF4908705B
:1006B000DB480088DE490880D4480068642807D1F8
:1006C000D3480068F92803D14FF47840D449088012
:1006D000CE480068642807D1CD480068FB2803D1C4
:1006E0004FF47840CE490880C8480068632807D195
:1006F000C7480068FA2803D14FF47840C8490880F9
:10070000C2480068652807D1C1480068FA2803D1AB
:100710004FF47840C2490880C1480088C549086044
:10072000C814B94948610861B9480068401CB84913
:100730000860B7480068F02886D3B4480068401CB9
:10074000B2490860B1480068B0F5A07FFFF478AF07
:10075000B7480088FFF73CFE00234822C8211E202E
:1007600002F019FAB448006808F004FE04460323B6
:100770002246DC211E2002F0D5FA00235322C82194
:100780003C2002F008FAAD48006808F0F3FD04468A
:1007900003232246DC213C2002F0C4FA0023562227
:1007A000C8215A2002F0F7F9A548006808F0E2FDD8
:1007B000044603232246DC215A2002F0B3FA002328
:1007C0005222C821A02002F0E6F9022395480278BF
:1007D000DC21A02002F0A6FA00234722C821BE2077
:1007E00002F0D9F9022390480278DC21BE2002F001
:1007F00099FA00234222C821DC2002F0CCF902231E
:100800008A480278DC21084602F08CFA00207F49F1
:10081000086027E000207E4908601AE0814B1B78C1
:10082000DB02814C247843EA4413804C2478234330
:100830009AB2774B1B88C83399B2744B1B8803F567
:10084000967398B202F094F971480068401C7049A0
:1008500008606F4800681E28E0D36C480068401CA0
:100860006A490860694800681E28D3D310BD2DE985
:10087000F041002504E0002072494855681C85B20B
:10088000962DF8DB002531E000242BE005F1BF01B7
:1008900004F5947002F06BFA86B24FF6FF70864250
:1008A0001ED12046E21704EB527205EB450303EB21
:1008B000E202644B9A5C2146E31704EB5373DB10AE
:1008C000A4EBC303C3F107070123BB401A43E3179B
:1008D00004EB537305EB450707EBE303594FFA5459
:1008E000601C84B2182CD1DB681C85B2322DCBDBA6
:1008F000BDE8F0812DE9F041002637E000252DE02C
:10090000002427E0E21704EB5272D210962303FB77
:10091000062205EB45031A444B4B9A5CE31704EBA4
:100920005373DB10A4EBC303C3F1070C012303FAD9
:100930000CF31A4012B14FF6FF7700E0002705F1E3
:10094000BF0291B204F5947290B23A4602F010F9E7
:10095000601C84B2182CD5DB681C85B2322DCFDB2D
:100960004FF4FA7002F088FA701C86B22A2EC5DBAA
:10097000BDE8F0812DE9F34F83B0039C3DE00025F5
:1009800000261FE02F4810F806B0962000FB0460F8
:100990002D49085C0190002710E00120B84000EAD2
:1009A0000B090120B840019900EA010AD14500D1A4
:1009B0006D1CD14500D06D1E781CC7B2082FECDB32
:1009C000701CC6B26E2EDDDBA84502DA1FFA85F870
:1009D000029402232246DC21322002F0A3F90423F0
:1009E0002A46DC21462002F09DF904234246DC2100
:1009F000782002F097F9601EC4B204988442BEDBEE
:100A0000029805B0BDE8F08F0010014004000020FE
:100A100008000020080801400C0000200E00002003
:100A200010000020140000201500002016000020F7
:100A3000120000200C0C0140300000202C0000208F
:100A400028000020DE1C0020DD0100202DE9F041FF
:100A5000002529E0002423E0E21704EB527205EBA5
:100A6000450303EBE202FE4B9A5CE31704EB53737E
:100A7000DB10A4EBC303C3F107070123BB401A40FB
:100A800012B14FF6FF7600E0002605F1BF0291B2E9
:100A900004F5947290B2324602F06AF8601C84B297
:100AA000182CD9DB681C85B2962DD3DBBDE8F0810C
:100AB0002DE9F04389B006460F469046012E09D134
:100AC000002405E0E748005D01A90855601C84B2D8
:100AD000202CF7DB022E09D1002405E0E248005D5E
:100AE00001A90855601C84B2202CF7DB032E09D124
:100AF000002405E0DD48005D01A90855601C84B2B2
:100B0000032CF7DB042E09D1002405E0D848005D52
:100B100001A90855601C84B2202CF7DB052E09D1F1
:100B2000002405E0D348005D01A90855601C84B28B
:100B3000202CF7DB062E09D1002405E0CE48005D0D
:100B400001A90855601C84B2202CF7DB002429E0A1
:100B5000002523E0EA1705EB5272D21002EB4402A3
:100B600001AB9A5CEB1705EB5373DB10A5EBC303EA
:100B7000C3F1070C012303FA0CF31A4012B14FF62C
:100B8000FF7901E04FF0000904EB080291B2EA1985
:100B900090B24A4601F0ECFF681C85B2102DD9DBFB
:100BA000601C84B2102CD3DB09B0BDE8F08370B5B3
:100BB0000025B248048824E0B148005DF8B9B14886
:100BC000067807E0701C81B21F22204601F0D0FF9A
:100BD000701C86B2AC4800788642F3DB681EC5B252
:100BE000601C84B206E0601E84B2A848008884427B
:100BF00000DC03E0A248005D0028F4D000BF601EC6
:100C000084B2A24800888442D6DC681EC5B20223A2
:100C10002A46DC211E2002F085F8284670BD2DE909
:100C2000FF5F07460E46B81B19287DDA9548007805
:100C3000401C00F0FF0994480078401E00F0FF0AB5
:100C400014E0A6F10A0084B20AE04946204602F008
:100C50008EF880B20390039800B103E0601C84B268
:100C6000BC42F2DB00BF039800B106E05FEA090076
:100C700009F1010101F0FF09E3D100BF13E0701C8D
:100C800084B20AE05146204602F071F880B2039027
:100C9000039800B103E0601C84B2BC42F2DB00BFE9
:100CA000039800B106E05FEA0A00AAF1010101F031
:100CB000FF0AE4D100BFA9F1010000F0FF090AF129
:100CC000020000F0FF0A4FF6FF724946304601F07D
:100CD0004FFF4FF6FF725146384601F049FF0020A2
:100CE000019009F1010826E00A25701C84B216E083
:100CF0004146204602F03BF880B20390019A02F18F
:100D0000BF01BA1B521E40F20F139A1A2A4490B226
:100D1000039A01F02DFF681CC5B2601C84B2BC426E
:100D2000E6DB0198401C00E060E1C0B2019008F1F0
:100D300001001FFA80F8D045D6DB00200190B81BD7
:100D4000401EC0F11801B81B401E91FBF0F0C0B26C
:100D50000290B81B401EC0F11801B81B401E91FB49
:100D6000F0F200FB121000F0FF0BBBF1000F04D0FB
:100D7000182090FBFBF0C0B2009009F1010861E07F
:100D80000A25B81B401EC0F11801B81B401E91FB7C
:100D9000F0F200FB121000F0FF0B701C84B247E071
:100DA0004146204601F0E3FF80B20390019A02F130
:100DB000BF0105F20F10039A01F0DAFE681CC5B2FC
:100DC000B81B401EC0F11801B81B401E91FBF0F08B
:100DD000C0B202900DE0019A02F1BF0105F20F10BE
:100DE000039A01F0C5FE0298401EC0B20290681C32
:100DF000C5B202980028EED1BBF1000F16D0681CD6
:100E0000009990FBF1F201FB120078B9012D0DD091
:100E1000019A02F1BF0105F20F10039A01F0A8FE3A
:100E2000ABF1010000F0FF0B681CC5B2601C84B27E
:100E3000BC42B5DB0198401EC0B2019008F1010030
:100E40001FFA80F8D0459BDB4FF4FC62BF2140F2D3
:100E50000F1001F08DFE4FF4FC62F02118E000004D
:100E6000870000201D0100203D0100205D010020C1
:100E70007D0100209D010020BD01002036000020E2
:100E80009E1B0020180000201700002034000020C6
:100E900040F20F1001F06CFE4FF4FC62BF2140F2F3
:100EA000271001F065FE4FF4FC62F02140F227109C
:100EB00001F05EFEAAEB090032287DDAAAEB0900F8
:100EC000401CC0F13201AAEB0900401C91FBF0F07C
:100ED000C0B20290AAEB0900401CC0F13201AAEB9B
:100EE0000900401C91FBF0F200FB121000F0FF0B18
:100EF000322090FBFBF0C0B200900025A8466AE0CB
:100F000040F20F1410E008F1BF01204601F02FFF5E
:100F100080B2039005F1BF0104F1190290B2039A67
:100F200001F026FE601C84B2B4F5947FEBDB681CF4
:100F3000C5B21EE040F20F1412E008F1BF012046D6
:100F400001F015FF80B2039005F1BF02424491B257
:100F500004F1190290B2039A01F00AFE601C84B2F7
:100F6000B4F5947FE9DB0298401EC0B20290681C81
:100F7000C5B202980028DDD1BBF1000F27D0681C54
:100F8000009990FBF1F201FB120000BB012D1ED075
:100F900040F20F1412E008F1BF01204601F0E7FE15
:100FA00080B2039005F1BF0104F1190290B2039AD7
:100FB00001F0DEFD601C00E011E084B2B4F5947F26
:100FC000E9DBABF1010000F0FF0B681CC5B208F1D2
:100FD00001001FFA80F8AAEB0900404590DC4FF4AD
:100FE0007842BF214FF4A07001F0C2FDBDE8FF9F21
:100FF00070B5FC480088401E84B23DE101E0601EEF
:1010000084B2F948005D0028F9D0601CF7490880D7
:1010100001E0601E84B2F448005D0028F9DCF44869
:101020000480F2480088F2490988401A042812DA3C
:1010300001E0601E84B2EC48005D0028F9D0601C1D
:10104000EA49088001E0601E84B2E748005D00289C
:10105000F9DCE748048001E0601E84B2E248005DEC
:101060000028F9D0601CE349088001E0601E84B2CA
:10107000DD48005D0028F9DCDF480480DD48008899
:10108000DD490988401A042812DA01E0601E84B2A2
:10109000D548005D0028F9D0601CD649088001E0E1
:1010A000601E84B2D048005D0028F9DCD24804807C
:1010B00001E0601E84B2CC48005D0028F9D0601CBD
:1010C000CE49088001E0601E84B2C748005D002858
:1010D000F9DCCB480480C9480088C9490988401A0E
:1010E000042812DA01E0601E84B2BF48005D0028C7
:1010F000F9D0601CC149088001E0601E84B2BA4882
:10110000005D0028F9DCBE48048001E0601E84B266
:10111000B548005D0028F9D0601CBA49088001E09C
:10112000601E84B2B048005D0028F9DCB648048037
:10113000B4480088B4490988401A042812DA01E04A
:10114000601E84B2A848005D0028F9D0601CAD493B
:10115000088001E0601E84B2A348005D0028F9DC2D
:10116000A948048001E0601E84B29F48005D002809
:10117000F9D0601CA549088001E0601E84B29A483D
:10118000005D0028F9DCA2480480A0480088A0493E
:101190000988401A042812DA01E0601E84B29248DD
:1011A000005D0028F9D0601C9849088001E0601EAD
:1011B00084B28D48005D0028F9DC9548048001E088
:1011C000601E84B28848005D0028F9D0601C9149F7
:1011D000088001E0601E84B28348005D0028F9DCCD
:1011E0008D48048001E0601E84B27F48005D0028C5
:1011F000F9D0601C8949088001E0601E84B27A48F9
:10120000005D0028F9DC8648048084480088844911
:101210000988401A042812DA01E0601E84B272487C
:10122000005D0028F9D0601C7C49088001E0601E48
:1012300084B26D48005D0028F9DC7948048001E043
:10124000601E84B26848005D0028F9D0601C7549B2
:10125000088006E074480088844200DC05E0601ED7
:1012600084B26148005D0028F4DC00BF6F48048050
:101270006D480488601E84B26B48008884423FF742
:10128000BDAE6B48067871E0701C81B21F225748D2
:10129000008801F06DFC701C81B21F225448008848
:1012A00001F066FC701C81B21F225248008801F0D8
:1012B0005FFC701C81B21F224F48008801F058FC6F
:1012C000701C81B21F224D48008801F051FC701C37
:1012D00081B21F224A48008801F04AFC701C81B28A
:1012E0001F224848008801F043FC701C81B21F2275
:1012F0004548008801F03CFC701C81B21F22434825
:10130000008801F035FC701C81B21F224048008823
:1013100001F02EFC701C81B21F223E48008801F0B3
:1013200027FC701C81B21F223B48008801F020FC82
:10133000701C81B21F223948008801F019FC701C12
:1013400081B21F223648008801F012FC701C81B265
:101350001F223448008801F00BFC701C81B21F2250
:101360003248008801F004FC701C86B231480078D5
:10137000864289DB1E4801881C480088FFF74FFC25
:10138000FFF775FA24210020FFF7F4FA05460A2D2D
:1013900007DA2948425D0123DC21F02001F0C2FC7C
:1013A00006E02548425D0023DC21F02001F0F3FB3C
:1013B00022488571104801880E480088FFF72FFCED
:1013C000FFF755FA24210020FFF7D4FA05460A2D2D
:1013D00036DA1948425D0123DC21E62001F0A2FC47
:1013E00035E00000360000209E1B00203800002061
:1013F0003A0000203C0000203E0000204000002079
:101400004200002044000020460000204800002048
:101410004A0000204C0000204E0000205000002018
:10142000520000205400002034000020560000200C
:1014300018000020170000205B0000208000002022
:10144000FE48425D0023DC21E62001F0A4FBFC48BD
:101450004571FC480188FC480088FFF7E0FBFFF776
:1014600006FA24210020FFF785FA05460A2D07DA3F
:10147000F248425D0123DC21084601F053FC06E0FE
:10148000EE48425D0023DC21084601F084FBEC4875
:101490000571EE480188EE480088FFF7C0FBFFF7B2
:1014A000E6F924210020FFF765FA05460A2D07DA40
:1014B000E248425D0123DC21D22001F033FC06E04A
:1014C000DE48425D0023DC21D22001F064FBDC48D1
:1014D000C570E0480188E0480088FFF7A0FBFFF7EF
:1014E000C6F924210020FFF745FA05460A2D07DA40
:1014F000D248425D0123DC21C82001F013FC06E044
:10150000CE48425D0023DC21C82001F044FBCC48DA
:10151000857000232E22DC21BE2001F03CFBCF4849
:101520000188CF480088FFF77AFBFFF7A0F9242154
:101530000A20FFF71FFA05460A2D07DABF48425D69
:101540000123DC21B42001F0EDFB06E0BB48425D45
:101550000023DC21B42001F01EFBB9484570C148CE
:101560000188C1480088FFF75AFBFFF780F92A215C
:101570002420FFF7FFF90546A5F12301C8B2DC22BC
:10158000A021FFF795FAA5F12300AD49087070BDC1
:1015900070B5B648047816E0B54805880DE02146D8
:1015A000284601F0E4FB86B204F1320081B23246F3
:1015B000284601F0DDFA681C85B2AE4800888542F5
:1015C000EDDB601C84B2AC4800788442E4DD70BD81
:1015D00010B50020A94908601CE0A848008881B225
:1015E0004FF446620A2001F0C3FAA448008881B291
:1015F0004FF44662142001F0BBFAA048008881B283
:101600004FF446621E2001F0B3FA9C480068401C6B
:101610009A49086099480068F028DED3002097496D
:1016200008602CE0954A128891B2954A934B1B684A
:10163000D05C4FF4784201F09BFA91488F490968D9
:10164000405C0F2816DB23208E4908600EE08B4A91
:10165000128891B28B4A128890B24FF4466201F020
:1016600087FA88480068401C8649086085480068F9
:101670002828ECD381480068401C804908607F48D6
:101680000068F028CED310BD10B5F0207E49087058
:1016900000207E490870794908602EE004E0774810
:1016A0000068401C75490860754874490968405CC9
:1016B0000F28F4DD714800787349087004E06F4822
:1016C0000068401C6D4908606D486C490968405CC1
:1016D0000F28F4DC694800786C49087008460078E7
:1016E00069490978401A0F2802DBF0206349086035
:1016F00062480068401C6149086060480068F02842
:10170000CCD361480078C01E5F4908705F480078FC
:10171000801C5E4908701E20584908600CE057493B
:10172000098888B21F225949097801F021FA5348E3
:101730000068401C5149086050480068B0F58C7F33
:10174000EDD31E204D4908600CE04C49098888B251
:101750001F224D49097801F00BFA48480068401CE7
:101760004649086045480068B0F58C7FEDD31E20DF
:10177000424908600EE04149098888B24FF4784236
:1017800041490978323101F0F3F93C480068401CC6
:101790003A49086039480068B0F58C7FEBD30120E6
:1017A0003B4908703848007838490978884202DD9A
:1017B00000203749087034480078F02802D03348B8
:1017C000007810B9002032490870304800782E495E
:1017D0000978401A0F2802DA00202D49087010BD40
:1017E0002DE9F0410020224908804FF4A0702149E2
:1017F000088007464FF000082348047873E01E2550
:101800006CE02146284601F0B2FA86B23046FEF777
:10181000DFFD20480168204807F0F8FE5CD21F4930
:101820001C48006807F0F2FE56D21D4801681D48AA
:1018300007F0ECFE50D21C49194837E05B0000204D
:1018400080000020420000204000002046000020D0
:10185000440000204A0000204800002052000020E0
:101860005000002056000020540000201F000020DF
:1018700034000020360000201E000020040000205C
:10188000AE1A0020080000201800002017000020D9
:10189000260000203000002000007A4300003E4374
:1018A0002C0000200000704200007041006807F02A
:1018B000ADFE11D2FE480168FE4807F0A7FE0BD22C
:1018C000FD49FB48006807F0A1FE05D2BD4200DAE1
:1018D0002F46454500DDA846681C85B2B5F5917FC9
:1018E0008FDB601C84B2F5480078844287DBF448C3
:1018F0000780A8F13200F3490880F348047807E034
:10190000F8222146EE48008801F032F9601C84B2CA
:10191000EA4800788442F3DBEB48047808E04FF4AF
:1019200078422146E748008801F022F9601C84B221
:10193000E24800788442F2DBBDE8F0812DE9F04F07
:1019400089B04FF0000AD346002007901E20069071
:101950003C2005901E200490DB490978D74A127874
:10196000881800EBD071C1F347010891D448B0F852
:1019700000802FE04046089901F0F9F987B2FC1287
:10198000C7F3451507F01F060A2C1FDD192D1DDDB5
:101990000F2E1BDD1E2C19DC3C2D17DC1E2E15DC3A
:1019A000A24500DAA246AB4500DAAB460798B04242
:1019B00000DA07960698A04200DD06940598A84232
:1019C00000DD05950498B04200DD049608F10100A1
:1019D0001FFA80F8BB4800888045CBDB06990AEBEC
:1019E000010000EBD071C1F34701039105990BEBA6
:1019F000010000EBD071C1F347010291049A0799ED
:101A0000881800EBD071C1F347010191AE4890F8FE
:101A100000902EE0AA48B0F8008022E049464046F7
:101A200001F0A5F987B2FC12C7F3451507F01F06B0
:101A3000039884420CDB0298854209DB01988642B8
:101A400006DB4FF6FF724946404601F091F804E08C
:101A500000224946404601F08BF808F101001FFAC8
:101A600080F8984800888045D8DB09F101001FFA0A
:101A700080F9924800788145CCDB44F6206001F083
:101A8000FBF909B0BDE8F08F10B500208F49086060
:101A90001CE08F488D490968405C38B98B4909883A
:101AA00088B21F22002101F063F80AE0884A874BC0
:101AB0001B68D15C854A128890B24FF4784201F0DD
:101AC00057F882480068401C804908607F480068D9
:101AD000B0F5A07FDDD310BD2DE9F04F89B04FF0F8
:101AE000000AD346002007901E2006903C20059057
:101AF0001E20049074490978704A1278881800EB07
:101B0000D071C1F3470108916D4804882FE0204649
:101B1000089901F02CF91FFA80F84FEAE825C8F37C
:101B2000451608F01F070A2D1FDD192E1DDD0F2F8A
:101B30001BDD1E2D19DC3C2E17DC1E2F15DCAA45E3
:101B400000DAAA46B34500DAB3460798B84200DA8D
:101B500007970698A84200DD06950598B04200DD7B
:101B600005960498B84200DD0497601C84B255487D
:101B700000888442CBDB06990AEB010000EBD071B0
:101B8000C1F34701039105990BEB010000EBD07104
:101B9000C1F347010291049A0799881800EBD071AC
:101BA000C1F347010191002404E000204849085591
:101BB000601C84B2B4F5A07FF7DB434890F8009036
:101BC00034E03F480088401C84B227E04946204664
:101BD00001F0CDF81FFA80F84FEAE825C8F3451662
:101BE00008F01F070398854211DB029886420EDB3E
:101BF000019887420BDB4FF6FF724946204600F002
:101C0000B7FF3348005D401C3149085504E000220D
:101C10004946204600F0ACFF601C84B22948008889
:101C20008442D3DB09F101001FFA80F923480078D0
:101C30008145C6DB09B0BDE8F08F10B5002023490F
:101C4000086009E000202349204A126888541F4890
:101C50000068401C1D4908601C480068F028F1D34A
:101C60004FF4A07016490880002016490880F02320
:101C70004FF4A0720021084600F02BFF012211034F
:101C8000154801F0D6FE00BF0121134801F071FD97
:101C90000128F9D0002220210F4801F0CAFE0122BC
:101CA00020210D4801F0C5FE012202210A4815E05D
:101CB000280000200000C842000034421700002025
:101CC000340000203600002018000020040000200E
:101CD0009E1B0020AE1A00200010014001F0A9FE5A
:101CE00000BF0121FA4801F044FD0028F9D000BFEF
:101CF0000121F74801F03DFD0128F9D00022022121
:101D0000F34801F096FE01F071FA0020F1490860F5
:101D10007CE00020F04908606EE01020EC4948614A
:101D2000EE480068EE4908801020E94908614861E2
:101D3000EA480068C0B2EB4908801020E449086115
:101D4000E8480088E649097840EA0120E649088029
:101D500008460088C012E5490870E3480088C0F3CF
:101D60004510E3490870E048007800F01F00E149A1
:101D70000870DE480078E0490978884210DDDC48C8
:101D80000078DE49097888420ADBDA480078DC49C5
:101D90000978884204DB4FF6FF70D349088002E0DF
:101DA0000020D1490880D0480088D6490988884257
:101DB00009D0D548C7490968405C401CC1B2D24827
:101DC000C44A12688154C8480088CE490880C54872
:101DD0000088C349097840EA0120C34908800846C1
:101DE0000088CA490860C814B94948610861BA48FE
:101DF0000068401CB8490860B7480068B0F5A07F8B
:101E00008BD3B4480068401CB2490860B1480068F0
:101E1000F028FFF47EAFFFF7DBFBFFF735FCBC4893
:101E20000078012817D1FFF7DBFCBA480088BA49CF
:101E30000988884202DD0020B5490870B54800884D
:101E4000B0F5917F04DCB4480088B0F5917F02DDE5
:101E50000020AF490870AE48007801285BD1FFF739
:101E60003BFEFFF711FEFEF7A2FE0446082C02D14E
:101E7000FFF7BEF84FE046F2666000F053FE002325
:101E80004D22C821082000F086FE00236522C821CB
:101E9000102000F080FE00236122C821182000F0ED
:101EA0007AFE00237322C821202000F074FE002354
:101EB0007522C821282000F06EFE00237222C8215E
:101EC000302000F068FE00236522C821382000F091
:101ED00062FE00234622C821482000F05CFE002359
:101EE0006122C821502000F056FE00236922C8213B
:101EF000582000F050FE00236C22C821602000F022
:101F00004AFE00236C22C821682000F044FE4FF4F2
:101F1000487000F0B1FF10BD10B500206D49086099
:101F200009E0002078496B4A1268885469480068C3
:101F3000401C6849086067480068F028F1D34FF4F6
:101F4000A07074490880002073490880F0234FF482
:101F5000A0720021084600F0BCFD012211035C487C
:101F600001F067FD00BF0121594801F002FC012882
:101F7000F9D000222021564801F05BFD01222021EA
:101F8000534801F056FD01220221514801F051FD54
:101F900000BF01214E4801F0ECFB0028F9D000BF42
:101FA00001214B4801F0E5FB0128F9D00022022174
:101FB000474801F03EFD01F019F90020454908604D
:101FC0007BE00020444908606DE0102040494861F2
:101FD000424800684249088010203D490861486134
:101FE0003E480068C0B23F49088010203849086167
:101FF0003C4800883A49097840EA01203A4908807B
:1020000008460088C0123949087037480088C0F374
:102010004510374908703448007800F01F003549F2
:1020200008703248007834490978884210DD304819
:1020300000783249097888420ADB2E480078304916
:102040000978884204DB4FF6FF702749088002E0D8
:10205000002025490880244800882A4909888842A8
:1020600008D029481B490968405C401C2649194A88
:10207000126888541C480088224908801948008842
:102080001749097840EA0120174908800846008866
:102090001E490860C8140E49486108610E4800686E
:1020A000401C0D4908600C480068B0F5A07F8CD337
:1020B00008480068401C0749086006480068F02886
:1020C000FFF47FAFFFF784FAFFF7DEFA10BD0000E0
:1020D0000010014004000020080000200808014012
:1020E0000C0000200E000020100000201400002032
:1020F0001500002016000020580000205900002084
:102100005A00002012000020AE1A00200C0C0140E2
:1021100026000020340000203600002010B5F023F7
:102120004FF4A0720021084600F0D3FC01221103F5
:10213000F94801F07EFC00BF0121F74801F019FBCE
:102140000128F9D000222021F34801F072FC01227D
:102150002021F14801F06DFC01220221EE4801F03E
:1021600068FC00BF0121EC4801F003FB0028F9D016
:1021700000BF0121E84801F0FCFA0128F9D0002253
:102180000221E54801F055FC01F030F80020E34958
:10219000086055E00020E249086047E01020DE4971
:1021A0004861E0480068E04908801020DA49086189
:1021B0004861DC480068C0B2DC4908801020D6497C
:1021C0000861DA480088D849097840EA0120D849EE
:1021D000088008460088C012D6490870D448008894
:1021E000C0F34510D4490870D148007800F01F00B2
:1021F000D2490870CF4800781D280ADACE48007806
:102200003B2806DA084600781D2802DA0020C84973
:102210000880C7480088CA490860C814BE49486198
:102220000861BF480068401CBD490860BC480068A0
:10223000B0F5A07FB2D3B9480068401CB749086028
:10224000B6480068F028A5D310BD08B548208DF821
:10225000030003208DF802000120ADF8000069465C
:10226000AD4801F0C1F908BD70B50446B54810F895
:10227000340040B1322101EB0412B24911F83400AC
:102280000921FEF715FCAF4800EBC40040780A288E
:102290000DDAAC4800EBC4004078AB4B1A5C32203E
:1022A00000EB04110123192000F03CFD0CE0A548CF
:1022B00000EBC4004078A44B1A5C322000EB041100
:1022C0000023192000F067FC322000EB04110023EA
:1022D0002E22212000F05FFC9A4800EBC400807899
:1022E0000A280DDA974800EBC4008078964B1A5CF8
:1022F000322000EB04110123292000F013FD0CE033
:10230000904800EBC40080788F4B1A5C322000EBC1
:1023100004110023292000F03EFC8A4800EBC40091
:10232000C0780A280DDA874800EBC400C078864BD5
:102330001A5C322000EB04110123312000F0F2FC82
:102340000CE0804800EBC400C0787F4B1A5C322060
:1023500000EB04110023312000F01DFC794800EB54
:10236000C40000790A280DDA764800EBC400007931
:10237000754B1A5C322000EB04110123392000F068
:10238000D1FC0CE06F4800EBC40000796E4B1A5C86
:10239000322000EB04110023392000F0FCFB6948D7
:1023A00000EBC40040790A280DDA664800EBC4004F
:1023B0004079654B1A5C322000EB04110123412067
:1023C00000F0B0FC0CE05F4800EBC40040795E4BCD
:1023D0001A5C322000EB04110023412000F0DBFBEB
:1023E000584800EBC40080790A280DDA554800EB04
:1023F000C4008079544B1A5C322000EB0411012395
:10240000492000F08FFC0CE04E4800EBC4008079BE
:102410004D4B1A5C322000EB04110023492000F0E0
:10242000BAFB484800EBC400C579322000EB041128
:1024300006232A46642000F075FC3C2D0ADA4FF68C
:10244000FF7000EAC502322000EB0411A82000F062
:1024500008FC14E03C2095FBF0F04FF4FA7148437F
:102460003C2195FBF1F201FB125100EBC10086B259
:10247000322000EB04113246A82000F0F2FB70BDC0
:1024800010B53248008800F00100002837D0FDF771
:1024900019FF2F4800783C2831D12A48007820B114
:1024A0002848C079401C2749C8712648007A28B1BD
:1024B0002448C07B401CC1B22248C1732148007C23
:1024C00028B12048C07D401CC1B21E48C1751D48BE
:1024D000007E28B11B48C07F401CC1B21948C1779B
:1024E000184890F8200038B1164890F82700401C92
:1024F000C1B2144880F8271000201549087014480C
:102500000078401C124908701048008820F0010033
:102510000E49088010BD000000100140040000209A
:1025200008000020080801400C0000200E000020D8
:1025300010000020140000201500002016000020CC
:102540000C0C0140741D00205B00002010040040B2
:102550007F00002010B50121022002F015F842F2A0
:1025600010706B49888043F2FF1008800020C880FB
:102570004880684803F0CAF901224121654804F007
:1025800099FA0121634804F010FA10BD10B5002338
:102590004E220A21232000F0FEFA002375220A2190
:1025A0002B2000F0F8FA00236D220A21332000F0DE
:1025B000F2FA002362220A213B2000F0ECFA002309
:1025C00065220A21432000F0E6FA002372220A2144
:1025D0004B2000F0E0FA002354220A216B2000F087
:1025E000DAFA002369220A21732000F0D4FA0023CA
:1025F0006D220A217B2000F0CEFA002365220A21F9
:10260000832000F0C8FA002350220A21AB2000F0FA
:10261000C2FA002372220A21B32000F0BCFA002380
:1026200069220A21BB2000F0B6FA002363220A21A6
:10263000C32000F0B0FA002365220A21CB2000F06D
:10264000AAFA10BD10B504462146334802F019FC21
:1026500000BF8021304802F0F3FD0028F9D010BD02
:1026600070B505460E46002404E0285DFFF7EAFF3A
:10267000601CC4B2B442F8DB70BD1020FDF7DFFD72
:1026800000F04AFC00F074F800F0EEF800F01CFFD7
:10269000FFF7DBFD00F01CFD002208211F4801F0C0
:1026A000C8F900F04FFCFFF755FF46F2666000F0F6
:1026B00039FA00BF00F0D7FE0028FBD04FF4784075
:1026C00000F030FA642000F0EEFB022418201449D8
:1026D000087035201349087018201349087016E057
:1026E000012C01D8FFF7A9FA012C0CD9FFF714FC33
:1026F00007210E48FFF7B4FFC4F115020223DC21C5
:102700001E2000F00FFB142C00D10024641CE7E70E
:10271000A41A0020000400400038014000100140CD
:1027200058000020590000205A000020800000209E
:102730000948804709480047FEE7FEE7FEE7FEE755
:10274000FEE7FEE7FEE7FEE7FEE7FEE70448054991
:10275000054A064B70470000378F0008ED0000085F
:10276000001E002000240020002000200020002067
:1027700008B50121192001F0DEFE0121F94801F020
:102780005DFA10208DF8030003208DF802004FF44D
:102790000070ADF800006946F34800F025FF4FF4E3
:1027A0008060ADF800006946EF4800F01DFF4FF46F
:1027B0000060ADF800006946EB4800F015FF4FF4EB
:1027C0008050ADF800006946E74800F00DFF4FF477
:1027D0008070ADF800006946E34800F005FF4FF651
:1027E000FF70ADF800006946E04800F0FDFE0122F0
:1027F0009102DD4801F01DF90122D102DA4801F011
:1028000018F901221103D84801F013F900224FF4FE
:102810000071D54801F00DF908BD10B50446D34844
:102820000C3004600022C114CF4801F002F90122EB
:10283000D102CD4801F0FDF810BD10B504460022CC
:102840004FF48051C84801F0F4F82046FFF7E5FF47
:1028500010BD10B5044601221103C34801F0E9F888
:102860002046FFF7DAFF10BD10B501221102BE4865
:1028700001F0DFF80A2000F016FB00224FF480710F
:10288000B94801F0D6F80A2000F00DFB0122110230
:10289000B54801F0CEF80A2000F005FBCF20FFF785
:1028A000CCFF0020FFF7D5FFC120FFF7D2FF30207B
:1028B000FFF7CFFFED20FFF7C0FF6420FFF7C9FF50
:1028C0000320FFF7C6FF1220FFF7C3FF8120FFF7A9
:1028D000C0FFE820FFF7B1FF8520FFF7BAFF102007
:1028E000FFF7B7FF7A20FFF7B4FFCB20FFF7A5FF74
:1028F0003920FFF7AEFF2C20FFF7ABFF0020FFF7DA
:10290000A8FF3420FFF7A5FF0220FFF7A2FFF72062
:10291000FFF793FF2020FFF79CFFEA20FFF78DFFD2
:102920000020FFF796FF0020FFF793FFC020FFF77E
:1029300084FF1B20FFF78DFFC120FFF77EFF0120E2
:10294000FFF787FFC520FFF778FF3020FFF781FFF3
:102950003020FFF77EFFC720FFF76FFFB720FFF79C
:1029600078FF3620FFF769FF4820FFF772FF3A2013
:10297000FFF763FF5520FFF76CFFB120FFF75DFF06
:102980000020FFF766FF1A20FFF763FFB620FFF76E
:1029900054FF0A20FFF75DFFA220FFF75AFFF22045
:1029A000FFF74BFF0020FFF754FF2620FFF745FFFE
:1029B0000120FFF74EFFE020FFF73FFF0F20FFF75A
:1029C00048FF2A20FFF745FF2820FFF742FF082095
:1029D000FFF73FFF0E20FFF73CFF0820FFF739FF0E
:1029E0005420FFF736FFA920FFF733FF4320FFF7FE
:1029F00030FF0A20FFF72DFF0F20FFF72AFF0020EE
:102A0000FFF727FF0020FFF724FF0020FFF721FF3B
:102A10000020FFF71EFFE120FFF70FFF0020FFF768
:102A200018FF1520FFF715FF1720FFF712FF0720EB
:102A3000FFF70FFF1120FFF70CFF0620FFF709FF3C
:102A40002B20FFF706FF5620FFF703FF3C20FFF780
:102A500000FF0520FFF7FDFE1020FFF7FAFE0F2014
:102A6000FFF7F7FE3F20FFF7F4FE3F20FFF7F1FEF0
:102A70000F20FFF7EEFE2B20FFF7DFFE0020FFF711
:102A8000E8FE0020FFF7E5FE0120FFF7E2FE3F2011
:102A9000FFF7DFFE2A20FFF7D0FE0020FFF7D9FE68
:102AA0000020FFF7D6FE0020FFF7D3FEEF20FFF750
:102AB000D0FE1120FFF7C1FE782000F0DDF92920BB
:102AC000FFF7BBFE3620FFF7B8FE6C20FFF7C1FE14
:102AD00010BD2DE9F04104460D4616461F462A203A
:102AE000FFF7ABFE2012FFF7B4FEE0B2FFF7B1FE36
:102AF0003012FFF7AEFEF0B2FFF7ABFE2B20FFF770
:102B00009CFE2812FFF7A5FEE8B2FFF7A2FE3812DE
:102B1000FFF79FFEF8B2FFF79CFE2C20FFF78DFE1B
:102B2000BDE8F08170B50646F0234FF4A072002195
:102B30000846FFF7CEFF012211030B4800F079FF92
:102B400000240AE0002504E03046FFF766FE681C1A
:102B500085B2F02DF8DB601C84B2B4F5A07FF1DB08
:102B600070BD00000002300000100140000C014068
:102B700070B504460D4616462B4622462946204689
:102B8000FFF7A7FF01221103B24800F052FF3046C1
:102B9000FFF743FE70BD2DE9F04706460F4690460D
:102BA0009A46A8F1200000F0FF08BAF1000F26D1E4
:102BB000002421E0A84800EB081010F8049000253C
:102BC00016E009F0010040B13A1991B2721990B2C1
:102BD0004FF6FF72FFF7CCFF06E03A1991B2721977
:102BE00090B20022FFF7C4FF4FEA6909681CC5B222
:102BF000082DE6DB601CC4B2122CDBDB1DE00024D8
:102C000019E0954800EB081010F8049000250EE03C
:102C100009F0010038B13A1991B2721990B24FF629
:102C2000FF72FFF7A5FF4FEA6909681CC5B20A2DBC
:102C3000EEDB601CC4B2142CE3DBF0234FF4A07273
:102C400000210846FFF745FFBDE8F08710B50246B2
:102C5000012000E050430B00A1F10104E1B2F9D1E1
:102C600010BD2DE9F04104460E46154642F21070A3
:102C700095FBF0F03030C7B200233A46314620468B
:102C8000FFF789FF4FF47A7095FBF0F00A2190FB73
:102C9000F1F201FB12003030C7B204F1080188B232
:102CA00000233A463146FFF776FF642095FBF0F0AB
:102CB0000A2190FBF1F201FB12003030C7B204F19F
:102CC000100188B200233A463146FFF764FF04F151
:102CD000180188B200232E223146FFF75CFF0A203C
:102CE00095FBF0F00A2190FBF1F201FB120030306D
:102CF000C7B204F1200188B200233A463146FFF7FB
:102D00004AFF0A2095FBF0F100FB11503030C7B2AA
:102D100004F1280188B200233A463146FFF73BFF11
:102D2000BDE8F0812DE9F0470646894617461D4665
:102D3000002418E0281B401EC1B20A20FFF786FFBE
:102D4000B7FBF0F00A21B0FBF1F201FB120808F129
:102D50003001CAB206EBC40188B200234946FFF72E
:102D60001AFF601CC4B2AC42E4DBBDE8F0872DE979
:102D7000F04104460D46B4F5A07F01DAF02D02DBE8
:102D80000020BDE8F0812B46224629462046FFF769
:102D9000A0FE2E20FFF751FD4FF088302F4908602C
:102DA000091D08604FF6FF702C490C3108600122A4
:102DB0008914284800F03DFE00224FF40071254898
:102DC00000F037FE00224FF48061224800F031FE0F
:102DD000642000F05DF8012291021E4800F029FEF7
:102DE00000224FF480611B4800F023FE642000F0B5
:102DF0004FF81A480830006886B20122910215483F
:102E000000F017FE00224FF48061124800F011FE1E
:102E10001248083000681FFA80F8012291020D481C
:102E200000F007FEF7B24FF6FF7000EA07274FF0F9
:102E300033300A490860091D08604FF6FF700749E2
:102E40000C310860F012C002B91240EA411040EAA9
:102E5000E82096E7001001405A970008000C014056
:102E6000014606E04FF4FA7200E0521E002AFCD13F
:102E7000491E0029F6D17047014606E043F6982224
:102E800000E0521E002AFCD1491E0029F6D17047ED
:102E9000014605E0142200E0521E002AFCD1491E22
:102EA0000029F7D17047014642F228324A434FF0D9
:102EB000E0235A6100229A6101221A6100BF4FF09B
:102EC000E022106900F001021AB100F48032002AF9
:102ED000F5D000224FF0E0231A619A617047014655
:102EE00001EBC1024FF0E0235A6100229A610122F6
:102EF0001A6100BF4FF0E022106900F001021AB120
:102F000000F48032002AF5D000224FF0E0231A614D
:102F10009A61704700BFFEE708B50121102001F05B
:102F20000AFB4FF40050ADF8000010208DF80300AC
:102F300003208DF802006946014800F055FB08BDEA
:102F40000010014000B585B00121052001F0F3FA21
:102F50000121880301F0EFFA18208DF813004FF4D7
:102F60000070ADF8100003208DF8120004A9564837
:102F700000F03AFB04208DF813000002ADF81000B9
:102F800004A9514800F030FB4FF4E13000900020DC
:102F9000ADF80400ADF80600ADF80800ADF80C007F
:102FA0000C20ADF80A006946484801F040FC0121B8
:102FB000464801F080FD05B000BD10B5044600BFD5
:102FC0004021424802F03CF90028F9D0E1B23F48E4
:102FD00001F057FF10BD10B500BF20213B4802F0A3
:102FE0002FF90028F9D0394801F072FF10BD2DE902
:102FF000F04104460A20B4FBF0F100FB11456420C7
:10300000B4FBF0F100FB11400A21B0FBF1F64FF4E4
:103010007A70B4FBF0F100FB11406421B0FBF1F0D9
:10302000C7B24FF47A70B4FBF0F000F0FF0808F17B
:103030003000FFF7C2FF07F13000FFF7BEFF06F1D7
:103040003000FFF7BAFF05F13000FFF7B6FF0D20A3
:10305000FFF7B3FF0A20FFF7B0FFBDE8F0812DE9CD
:10306000F04104460A20B4FBF0F100FB1145642056
:10307000B4FBF0F100FB11400A21B0FBF1F64FF474
:103080007A70B4FBF0F100FB11406421B0FBF1F069
:10309000C7B24FF47A70B4FBF0F000F0FF0808F10B
:1030A0003000FFF78AFF07F13000FFF786FF06F1D7
:1030B0003000FFF782FF05F13000FFF77EFF202090
:1030C000FFF77BFFBDE8F0810008014000380140B8
:1030D00008B50121102001F02EFA0121102001F085
:1030E0002AFA0121102001F026FA0121102001F016
:1030F00022FA0121102001F01EFA0121102001F016
:103100001AFA0121102001F016FA0121102001F015
:1031100012FA10208DF8030003208DF8020002201F
:10312000ADF800006946E54800F05EFA0420ADF80D
:1031300000006946E14800F057FA0820ADF80000A9
:103140006946DE4800F050FA1020ADF800006946EC
:10315000DA4800F049FA2020ADF800006946D74867
:1031600000F042FA4020ADF800006946D34800F074
:103170003BFA8020ADF800006946D04800F034FAF0
:103180004FF40050ADF800006946CC4800F02CFA2E
:103190000121042001F0CFF948208DF803004FF6FB
:1031A000FF70ADF800006946C54800F01DFA08BD83
:1031B00008B548208DF8030003208DF80200802018
:1031C000ADF800006946BD4800F00EFA08BD08B52C
:1031D00010208DF8030003208DF802008020ADF848
:1031E00000006946B54800F0FFF908BD0420B34966
:1031F000486110204861086148610420086110207E
:103200000861704710B501228021AC4800F011FC24
:103210000220FFF725FE01224021A84800F009FC0A
:103220000220FFF71DFE00228021A44800F001FCCF
:103230000220FFF715FE00224021A04800F0F9FB14
:103240000220FFF70DFE10BD10B5002280219B4823
:1032500000F0EFFB0220FFF703FE01224021974818
:1032600000F0E7FB0220FFF7FBFD012280219348DD
:1032700000F0DFFB0220FFF7F3FD10BD10B50122C7
:1032800080218E4800F0D5FB0220FFF7E9FD0122E6
:1032900040218A4800F0CDFB0220FFF7E1FD00222B
:1032A0004021864800F0C5FB0220FFF7D9FD00222F
:1032B0008021824800F0BDFB0220FFF7D1FD10BD48
:1032C00010B5FFF775FF012280217C4800F0B1FBAB
:1032D0000220FFF7C5FD01224021784800F0A9FB3C
:1032E0000220FFF7BDFD8021744800F042FA044639
:1032F0000220FFF7B5FD00224021704800F099FB45
:103300000220FFF7ADFDFFF762FF002280216B482E
:1033100000F08FFB0CB9012010BD0020FCE770B558
:10332000054600241CE005FA04F0C0F3C012802119
:10333000624800F07EFB0220FFF792FD012240214F
:103340005E4800F076FB0220FFF78AFD0022402154
:103350005A4800F06EFB0220FFF782FD601CC4B2E9
:10336000082CE0DB00228021544800F062FBFFF7CC
:10337000A7FF70BD70B50025FFF71AFF00241CE001
:10338000012240214D4800F054FB0220FFF768FD68
:1033900080214A4800F0EDF910B18020204105431A
:1033A0000220FFF75DFD00224021444800F041FB70
:1033B0000220FFF755FD601CC4B2082CE0DBFFF7CC
:1033C00006FF002280213D4800F033FB284670BDF7
:1033D00070B505460C46FFF715FF4220FFF79FFF2B
:1033E00018B9FFF731FF002070BD2846FFF797FF9F
:1033F00018B9FFF729FF0020F6E72046FFF78FFFF7
:1034000018B9FFF721FF0020EEE7FFF71DFF0120AD
:10341000EAE770B505460C46FFF7F4FE4220FFF7D9
:103420007EFF18B9FFF710FF002070BD2846FFF798
:1034300076FF18B9FFF708FF0020F6E7FFF704FF53
:10344000FFF7E0FE4320FFF76AFF18B9FFF7FCFE25
:103450000020EAE7FFF78EFF2070FFF70FFFFFF76E
:10346000F3FE0120E1E738B50024802000909DF8AC
:1034700000101220FFF7ACFF08B9002038BD6946E4
:103480000B20FFF7C6FF08B90020F7E79DF8000002
:10349000732811D100240DE00A4A02EB440251784E
:1034A000084A12F81400FFF793FF08B90020E5E777
:1034B000601CC4B2B82CEFDB0120DFE70010014034
:1034C000000801404A9D000808B50121042001F0D0
:1034D00032F848208DF8030003208DF802004FF4E5
:1034E0000040ADF800006946014800F07DF808BDD5
:1034F0000008014010B50446FC48844211D0FC4845
:1035000084420ED0FB4884420BD0FB48844208D052
:10351000FA48844205D0FA48844202D0F9488442ED
:1035200000D103E06F21F8A0FFF7F4FCEF488442DC
:1035300008D10121042001F050F80021042001F0FD
:103540004CF846E0EA48844208D10121082001F005
:1035500044F80021082001F040F83AE0E5488442B0
:1035600008D10121102001F038F80021102001F0CD
:1035700034F82EE0E048844208D10121202001F0F7
:103580002CF80021202001F028F822E0DB488442BA
:1035900008D10121402001F020F80021402001F055
:1035A0001CF816E0D648844208D10121802001F0A1
:1035B00014F80021802001F010F80AE0D14884427C
:1035C00007D10121801501F008F80021A01501F0B4
:1035D00004F810BD10B50121084600F0FEFF0021DF
:1035E000012000F0FAFF10BD2DE9F05F05460C4602
:1035F0004FF00009CA4600260027B046B346BB4834
:10360000854211D0BA4885420ED0BA4885420BD0C7
:10361000B948854208D0B948854205D0B8488542A6
:1036200002D0B848854200D103E0B221B6A0FFF72E
:1036300071FCE078A0B1E078042811D0E078282867
:103640000ED0E07848280BD0E078142808D0E07835
:10365000102805D0E0781C2802D0E078182800D186
:1036600003E0B321A8A0FFF755FC002010B9208883
:1036700000B103E0B421A4A0FFF74CFCE07800F017
:103680000F09E07800F0100080B1A078012805D083
:10369000A078022802D0A078032800D103E0BB2143
:1036A00099A0FFF737FCA07840EA0909207838B3E1
:1036B000D5F8008000261FE0012000FA06F72088D8
:1036C00000EA070ABA4516D1B7000F2000FA07FB37
:1036D00028EA0B0809FA07F040EA0808E0782828E9
:1036E00003D10120B040686105E0E078482802D1AC
:1036F0000120B0402861761C082EDDD3C5F800807B
:103700002088FF282BDDD5F80480002623E006F171
:103710000800012101FA00F7208800EA070ABA45EB
:1037200018D1B7000F2000FA07FB28EA0B0809FAA6
:1037300007F040EA0808E078282803D106F10800DD
:1037400081406961E078482804D106F10800012130
:1037500081402961761C082ED9D3C5F80480BDE8C4
:10376000F09F4FF6FF710180022181700421C1702A
:10377000704770B505460C4600265C48854211D05E
:103780005B4885420ED05B4885420BD05A48854243
:1037900008D05A48854205D05948854202D0594838
:1037A000854200D104E04FF48F7157A0FFF7B2FBC0
:1037B000012C25D0022C23D0042C21D0082C1FD082
:1037C000102C1DD0202C1BD0402C19D0802C17D0B1
:1037D000B4F5807F14D0B4F5007F11D0B4F5806FBC
:1037E0000ED0B4F5006F0BD0B4F5805F08D0B4F5FF
:1037F000005F05D0B4F5804F02D0B4F5004F00D182
:1038000004E040F21F1140A0FFF784FBA8682040AD
:1038100008B1012600E00026304670BD10B5044610
:103820003248844211D0324884420ED0314884421A
:103830000BD03148844208D03048844205D030480B
:10384000844202D02F48844200D104E04FF49A71A0
:103850002DA0FFF75FFBA06880B210BD70B50546D4
:103860000C4600262148854211D0214885420ED0C1
:10387000204885420BD02048854208D01F48854209
:1038800005D01F48854202D01E48854200D104E081
:103890004FF4A2711CA0FFF73DFB012C25D0022C98
:1038A00023D0042C21D0082C1FD0102C1DD0202C6C
:1038B0001BD0402C19D0802C17D0B4F5807F14D0A9
:1038C000B4F5007F11D0B4F5806F0ED0B4F5006F61
:1038D0000BD0B4F5805F08D0B4F5005F05D0B4F527
:1038E000804F02D0B4F5004F1ED123E00008014004
:1038F000000C01400010014000140140001801407C
:10390000001C0140002001402E2E5C4C6962726157
:1039100072795C7372635C73746D333266313078C4
:103920005F6770696F2E630040F24511AFF22800A7
:10393000FFF7F0FAE868204008B1012600E0002611
:10394000304670BD10B50446FE48844211D0FE4892
:1039500084420ED0FD4884420BD0FD48844208D0FA
:10396000FC48844205D0FC48844202D0FB48844293
:1039700000D105E04FF4AD71AFF27400FFF7CAFA61
:10398000E06880B210BD70B504460D46ED48844233
:1039900011D0ED4884420ED0EC4884420BD0EC4864
:1039A000844208D0EB48844205D0EB48844202D0E0
:1039B000EA48844200D105E040F26911AFF2B80054
:1039C000FFF7A8FA002008B905B105E04FF4B5717A
:1039D000AFF2CC00FFF79EFA256170BD70B50446CA
:1039E0000D46D848844211D0D74884420ED0D748DB
:1039F00084420BD0D648844208D0D648844205D0B1
:103A0000D548844202D0D548844200D105E040F236
:103A10007911AFF20C10FFF77DFA002008B905B15B
:103A200005E04FF4BD71AFF22010FFF773FA656146
:103A300070BD70B505460C461646C248854211D089
:103A4000C14885420ED0C14885420BD0C04885424E
:103A500008D0C048854205D0BF48854202D0BF4843
:103A6000854200D105E040F28D11AFF26410FFF7FE
:103A700051FA012C25D0022C23D0042C21D0082C63
:103A80001FD0102C1DD0202C1BD0402C19D0802CE6
:103A900017D0B4F5807F14D0B4F5007F11D0B4F501
:103AA000806F0ED0B4F5006F0BD0B4F5805F08D0F6
:103AB000B4F5005F05D0B4F5804F02D0B4F5004FE7
:103AC00000D105E04FF4C771AFF2C410FFF722FA3E
:103AD0000EB1012E00D105E040F28F11AFF2D810E7
:103AE000FFF718FA0EB12C6100E06C6170BD70B583
:103AF00004460D469348844211D0934884420ED028
:103B0000924884420BD09248844208D09148844223
:103B100005D09148844202D09048844200D105E00B
:103B20004FF4D271AFF22020FFF7F4F9E56070BDD9
:103B300070B504460D464FF480368248844211D059
:103B4000814884420ED0814884420BD08048844210
:103B500008D08048844205D07F48844202D07F4804
:103B6000844200D105E040F2B511AFF26420FFF7C6
:103B7000D1F9002008B905B105E04FF4DB71AFF2CF
:103B80007820FFF7C7F92E43A661A561A661A66953
:103B9000A66970BD70B505460C4600263DB1012DE5
:103BA00005D0022D03D0032D01D0042D00D105E056
:103BB0004FF4E971AFF2B020FFF7ACF9ECB1012C92
:103BC0001BD0022C19D0032C17D0042C15D0052C97
:103BD00013D0062C11D0072C0FD0082C0DD0092C97
:103BE0000BD00A2C09D00B2C07D00C2C05D00D2C97
:103BF00003D00E2C01D00F2C00D105E040F2D311E0
:103C0000AFF2FC20FFF786F9554806684FF6807042
:103C1000064046EA051626435148066070BD10B5B9
:103C200004460CB1012C00D105E04FF4F371AFF262
:103C30002830FFF76FF94B48C46110BD2DE9F047FC
:103C400004460E460027B8460025A946012C77D029
:103C5000022C75D0042C73D0082C71D042488442B9
:103C60006ED04148203084426AD04048844267D0B8
:103C70003E488030844263D03D48844260D03D4815
:103C800084425DD03C4884425AD03C48844257D05C
:103C90003B48844254D0B4F5805F51D0B4F5EA1F5C
:103CA0004ED0B4F5EB1F4BD0B4F5004F48D035489B
:103CB000844245D0401C844242D0801C84427FD044
:103CC000001D84427CD02F480F30844278D0B4F15C
:103CD000201F75D04FEAF030844271D02A488442C8
:103CE0006ED02A4884426BD02948844268D0294843
:103CF000844265D02848844262D0B4F5011F5FD069
:103D0000264884425CD0401C844259D0801C8442A6
:103D100056D0001D844253D020480F3084424FD0EB
:103D20001E481F3084424BD01C483F30844247D04D
:103D30001A487F30844243D01848FF3084422FE035
:103D40003EE0000000080140000C0140001001406E
:103D50000014014000180140001C014000200140F7
:103D60000000014000002042100014004000160036
:103D700000011800000218000003180000081A00D3
:103D8000000C1A0001002000000130000002300089
:103D900000043000001120000020200001000080FD
:103DA0000ED0664884420BD06548844208D06548EE
:103DB000844205D06448844202D06448844200D1E1
:103DC00005E040F22A21AFF2C040FFF7A3F80EB1A0
:103DD000012E00D105E040F22B21AFF2D440FFF7D5
:103DE00099F804F00040B0F1004F02D15848C5697D
:103DF00001E057484568C4F30349A7B204F44010F2
:103E0000B0F5401F08D125F070655148406820F09A
:103E100070604F49486013E004F48010B0F5801FD3
:103E200007D1032000FA09F825EA080545F0706576
:103E300006E0600D000107FA00F0854345F070656B
:103E400026B1600D010107FA01F0054304F00040BE
:103E5000B0F1004F02D13E48C56101E03C484560E9
:103E6000BDE8F08770B505460C4600265DB1012D12
:103E700009D0022D07D0032D05D0042D03D0052D28
:103E800001D0062D00D105E040F26521AFF2885047
:103E9000FFF740F8ECB1012C1BD0022C19D0032CF9
:103EA00017D0042C15D0052C13D0062C11D0072CBC
:103EB0000FD0082C0DD0092C0BD00A2C09D00B2CBC
:103EC00007D00C2C05D00D2C03D00E2C01D00F2CBC
:103ED00000D105E040F26621AFF2D450FFF71AF8A6
:103EE000A007010F0F2000FA01F619480830A110B1
:103EF00050F82100B04316490831A21041F82200C1
:103F00000846A11050F82100A107090F05FA01F198
:103F100008430F490831A21041F8220070BD10B5C6
:103F200004460CB1012C00D105E04FF41E71AFF234
:103F30002860FEF7EFFF0748046010BD0002008014
:103F40000004008000080080001000800020008035
:103F500000000140DC002042FE48006840F0010003
:103F6000FC49086008464068FB490840F949486038
:103F700008460068F9490840F649086008460068A4
:103F800020F4802008600846406820F4FE00486065
:103F90004FF41F008860704710B504462CB1B4F58B
:103FA000803F02D0B4F5802F00D104E040F211111F
:103FB000EBA0FEF7AFFFE748006820F48030E5494A
:103FC00008600846006820F480200860B4F5803F4F
:103FD00003D0B4F5802F0ED106E0DE48006840F42F
:103FE0008030DC49086007E0DA48006840F4A0202F
:103FF000D849086000E000BF00BF10BD2DE9F041C6
:104000000446002500260027212C13D0312C11D086
:10401000392C0FD0412C0DD0612C0BD07A2C09D02B
:104020007B2C07D07C2C05D07D2C03D07E2C01D09E
:104030007F2C00D104E040F23451C9A0FEF76AFFA2
:104040006511012D02D1C348066806E0022D02D198
:10405000C048066A01E0BF48466A04F01F05012017
:10406000A840304008B1012700E000273846BDE8ED
:10407000F08138B5002000900024002500BF3120D9
:10408000FFF7BCFF05460098401C00900098B0F573
:10409000A06F01D0002DF2D03120FFF7AFFF08B1A3
:1040A000012400E00024204638BD70B504460025F8
:1040B0001F2C00DC04E04FF4A971A9A0FEF72AFF31
:1040C000A448056825F0F80545EAC405056070BDFB
:1040D00010B504460CB1012C00D104E040F265118A
:1040E0009FA0FEF717FFA648046010BD70B50546F7
:1040F0000C4600262DB1B5F5803F02D0B5F5403F06
:1041000000D104E040F27F1195A0FEF703FF4CB30D
:10411000B4F5802F26D0B4F5002F23D0B4F5402F6E
:1041200020D0B4F5801F1DD0B4F5A01F1AD0B4F56F
:10413000C01F17D0B4F5E01F14D0B4F5001F11D084
:10414000B4F5101F0ED0B4F5201F0BD0B4F5301FFE
:1041500008D0B4F5401F05D0B4F5501F02D0B4F517
:10416000601F00D104E04FF4C0717DA0FEF7D2FEC5
:104170007848466826F47C1645EA040006437548EC
:10418000466070BD10B504460CB1012C00D104E0AE
:104190004FF4CA7172A0FEF7BDFE7948046610BDE7
:1041A00070B5044600251CB1012C01D0022C00D1B1
:1041B00004E04FF40E716AA0FEF7ACFE6548456856
:1041C00025F003052543456070BD6248406800F056
:1041D0000C00704770B5044600257CB1802C0DD0D2
:1041E000902C0BD0A02C09D0B02C07D0C02C05D01F
:1041F000D02C03D0E02C01D0F02C00D104E04FF4FF
:10420000197157A0FEF786FE5248456825F0F00563
:104210002543456070BD70B5044600255CB1B4F51A
:10422000806F08D0B4F5A06F05D0B4F5C06F02D090
:10423000B4F5E06F00D104E040F27E2148A0FEF723
:1042400069FE4448456825F4E0652543456070BD36
:1042500070B5044600255CB1B4F5806F08D0B4F5A4
:10426000A06F05D0B4F5C06F02D0B4F5E06F00D1F7
:1042700004E04FF426713AA0FEF74CFE354845683D
:1042800025F4605545EAC405456070BD70B5044627
:104290000D4604F0E00008B904B104E040F2BF218B
:1042A0002FA0FEF737FE0DB1012D00D104E04FF431
:1042B00030712BA0FEF72EFE2DB12648407A204308
:1042C0002449487204E02348407AA04321494872B7
:1042D00070BD10B504460CB1012C00D104E040F2D1
:1042E000DB211FA0FEF716FE2548D830046010BD64
:1042F00070B50446002544B1B4F5804F05D0B4F53F
:10430000004F02D0B4F5404F00D104E040F202313A
:1043100013A0FEF7FFFD0F48456825F440452543EF
:10432000456070BD10B504461CB1012C01D0042CB1
:1043300000D104E04FF4507109A0FEF7EBFD00201E
:10434000044920310870034981F82000012C1BD05A
:10435000042C17E0001002400000FFF8FFFFF6FEFB
:104360002E2E5C4C6962726172795C7372635C734D
:10437000746D3332663130785F7263632E63000090
:104380000000424208D103E00120F449087004E033
:104390000520F249087000E000BF00BF10BD10B555
:1043A00004460CB1012C00D105E040F26131AFF2BE
:1043B0005000FEF7AFFDEA48046010BD10B504469A
:1043C000B4F5807F05D0B4F5007F02D0B4F5407F0E
:1043D00000D105E040F27231AFF27C00FEF79AFDA9
:1043E000DE482038006A2043DC492039086210BDCD
:1043F00010B504460CB1012C00D105E04FF46071FA
:10440000AFF2A400FEF786FDD5484438046010BD25
:1044100030B50021002200240023D04D203D6D68DE
:1044200005F00C0121B1042905D0082926D105E0A9
:10443000CC4D056025E0CB4D056022E0C74D203D09
:104440006D6805F47012C54D203D6D6805F480342B
:10445000022505EB92421CB9C34D554305600CE0A3
:10446000BE4D203D6D6805F400351DB1BE4D554370
:10447000056002E0BB4D5543056002E0B94D0560A3
:1044800000BF00BFB54D203D6D6805F0F001090982
:10449000B64D6B5C0568DD404560B04D203D6D68F4
:1044A00005F4E061090AB14D6B5C4568DD4085604B
:1044B000AA4D203D6D6805F46051C90AAB4D6B5C97
:1044C0004568DD40C560A54D203D6D6805F440415F
:1044D000890BA74D6B5CC568B5FBF3F5056130BD75
:1044E00070B504460D4640F2575024EA000008B962
:1044F00004B105E040F22B41AFF29C10FEF70AFD3B
:104500000DB1012D00D105E040F22C41AFF2B01009
:10451000FEF700FD3DB191482038406920438F49A6
:104520002039486106E08D4820384069A0438B4916
:104530002039486170BD70B504460D468D48204055
:1045400008B904B105E040F24A41AFF2EC10FEF7C1
:10455000E1FC0DB1012D00D105E040F24B41AFF27D
:104560000020FEF7D7FC3DB17C482038806920430D
:104570007A492039886106E0784820388069A0436C
:1045800076492039886170BD70B504460D467A4879
:10459000204008B904B105E040F26941AFF2402083
:1045A000FEF7B8FC0DB1012D00D105E040F26A41E3
:1045B000AFF25420FEF7AEFC3DB168482038C06928
:1045C000204366492039C86106E064482038C06944
:1045D000A04362492039C86170BD70B504460D46DC
:1045E0006448204008B904B105E040F2A441AFF2AC
:1045F0009020FEF78FFC0DB1012D00D105E040F2B7
:10460000A541AFF2A420FEF785FC3DB15348203808
:10461000C068204351492039C86006E04F4820381F
:10462000C068A0434D492039C86070BD70B50446CC
:104630000D465148204008B904B105E040F2C3419D
:10464000AFF2E420FEF766FC0DB1012D00D105E0CC
:1046500040F2C441AFF2F820FEF75CFC3DB13F48A8
:104660002038006920433D492039086106E03B4875
:1046700020380069A04339492039086170BD10B560
:1046800004460CB1012C00D105E04FF49B61AFF260
:104690003030FEF73FFC32484038046010BD10B5A2
:1046A00004460CB1012C00D105E040F2E541AFF227
:1046B0005030FEF72FFC3148C46410BD10B50446DD
:1046C0003CB1052C05D0042C03D0062C01D0072CBE
:1046D00000D105E040F20551AFF27C30FEF71AFC44
:1046E0001E482038C47110BD1C482038406A40F074
:1046F00080701A4920394862704770B50446002519
:10470000012C09D0022C07D0042C05D0082C03D092
:10471000102C01D0802C00D105E040F27E51AFF288
:10472000C030FEF7F7FB0D4820388068204008B104
:10473000012500E00025284670BD10B5044604F0B0
:10474000600008B904B105E040F2AB51AFF2F030BF
:10475000FEF7E0FB01482038847210BD20100240B3
:104760008004424200127A0000093D00791A0020BC
:10477000891A00200200C0FF003601810000424279
:1047800010B50446FE4884420BD0FE48844208D04F
:10479000FD48844205D0FD48844202D0FC48844252
:1047A00000D103E08521FBA0FEF7B4FBF44884426E
:1047B00009D101218803FFF710FF00214FF4804049
:1047C000FFF70BFF32E0EF48844209D10121480492
:1047D000FFF72CFF00214FF40030FFF727FF25E003
:1047E000E948844209D101218804FFF71FFF002115
:1047F0004FF48020FFF71AFF18E0E448844209D103
:104800000121C804FFF712FF00214FF40020FFF739
:104810000DFF0BE0DE48844208D101210805FFF7B7
:1048200005FF00214FF48010FFF700FF10BD2DE9B8
:10483000F04786B005460C460026B24600BFB1469A
:104840000027CF4885420BD0CE48854208D0CE48BD
:10485000854205D0CD48854202D0CD48854200D161
:1048600003E0B821CBA0FEF755FB206820B1D24968
:104870002068884200D203E0B921C6A0FEF74AFBB7
:10488000A08818B1A088B0F5805F00D103E0BA21FC
:10489000C0A0FEF73FFBE08858B1E088B0F5805F2C
:1048A00007D0E088B0F5005F03D0E088B0F5405F46
:1048B00000D103E0BB21B7A0FEF72CFB208938B163
:1048C0002089B0F5806F03D02089B0F5C06F00D18A
:1048D00003E0BC21AFA0FEF71DFB60894FF6F3712A
:1048E000084010B9608900B103E0BD21A9A0FEF71E
:1048F00011FBA08958B1A089B0F5807F07D0A089AD
:10490000B0F5007F03D0A089B0F5407F00D103E06F
:10491000BE21A0A0FEF7FEFAA08968B198488542A2
:1049200005D09848854202D09748854200D103E0DF
:10493000C22198A0FEF7EEFA2F462E8A4CF6FF70A1
:104940000640E08806432E82AE894EF6F3100640FC
:10495000A08821890843618908430643AE81AE8A55
:104960004FF6FF400640A0890643AE8201A8FFF73C
:104970004FFD8348874202D1DDF810A001E0DDF849
:104980000CA0A88900F4004040B10AEBCA0000EB7B
:104990000A1021684900B0FBF1F807E00AEBCA00F1
:1049A00000EB0A1021688900B0FBF1F86420B8FB25
:1049B000F0F006013009642101FB1089A88900F498
:1049C000004040B1322000EBC900B0FBF1F000F034
:1049D0000700064308E0322000EB09106421B0FB19
:1049E000F1F000F00F0006432E8106B0BDE8F0871D
:1049F0004FF41651016000218180C18001810C219A
:104A0000418100218181704770B505460C46002622
:104A10005B48854205D05B48854202D05A488542B2
:104A200000D104E04FF499715AA0FEF773FA208880
:104A300018B12088B0F5006F00D104E040F23311C6
:104A400054A0FEF767FA608818B16088B0F5806FEF
:104A500000D104E04FF49A714EA0FEF75BFAA088F3
:104A600018B1A088B0F5007F00D104E040F2351104
:104A700048A0FEF74FFAE08818B1E088B0F5807FD3
:104A800000D104E04FF49B7142A0FEF743FA2E8A56
:104A90004FF2FF000640208861880843A188084340
:104AA000E188084306432E8270BD002101804180C9
:104AB0008180C180704770B504460D4630488442FD
:104AC0000BD03048844208D02F48844205D02F486C
:104AD000844202D02E48844200D104E04FF4B171E8
:104AE0002CA0FEF717FA0DB1012D00D104E040F221
:104AF000631128A0FEF70EFA25B1A08940F40050FA
:104B0000A08104E0A0894DF6FF710840A08170BD2E
:104B10002DE9F04705460C4617464FF00008C246FF
:104B2000C1460026164885420BD01648854208D05B
:104B30001548854205D01548854202D01448854263
:104B400000D104E040F2891112A0FEF7E3F9282C0D
:104B500038D040F22770844234D040F2266084423C
:104B600030D040F2255084422CD040F22440844280
:104B700028D040F64600844224D040F66A101DE05A
:104B8000003801400044004000480040004C004014
:104B9000005000402E2E5C4C6962726172795C7329
:104BA00072635C73746D3332663130785F75736134
:104BB00072742E630000000021AA4400844201D0D8
:104BC000602C00D105E04FF4C571AFF23800FEF75C
:104BD000A1F90FB1012F00D105E040F28B11AFF226
:104BE0004C00FEF797F940F66A1084420FD1F9485D
:104BF000854205D0F848854202D0F848854200D168
:104C000005E040F28F11AFF27400FEF783F92E46F3
:104C1000C4F3421804F01F0A012000FA0AF9B8F19F
:104C2000010F01D10C3605E0B8F1020F01D11036A9
:104C300000E0143627B1306840EA0900306003E034
:104C4000306820EA09003060BDE8F08770B504469E
:104C50000D461646DF4884420BD0DF48844208D018
:104C6000DE48844205D0DE48844202D0DD488442DA
:104C700000D105E040F2C311AFF2E800FEF74AF9B7
:104C80004FF63F70284008B905B105E04FF4E271D6
:104C9000AFF20010FEF73EF90EB1012E00D105E093
:104CA00040F2C511AFF21410FEF734F91EB1A08A1C
:104CB0002843A08202E0A08AA843A08270BD70B5FC
:104CC00004460D46C34884420BD0C348844208D0F2
:104CD000C248844205D0C248844202D0C1488442BE
:104CE00000D105E040F2DF11AFF25810FEF712F9E3
:104CF0000F2D00DC05E04FF4F071AFF26810FEF705
:104D000009F9208A4FF6F07108402082208A284352
:104D1000208270BD70B504460D46AE4884420BD06B
:104D2000AD48844208D0AD48844205D0AC488442A6
:104D300002D0AC48844200D105E04FF4FB71AFF2E1
:104D4000AC10FEF7E7F815B1B5F5006F00D105E03E
:104D500040F2F711AFF2C410FEF7DCF8A0894FF271
:104D6000FF710840A081A0892843A08170BD70B563
:104D700004460D46974884420BD09748844208D099
:104D80009648844205D09648844202D09548844291
:104D900000D105E040F20921AFF20820FEF7BAF891
:104DA0000DB1012D00D105E040F20A21AFF21C2027
:104DB000FEF7B0F825B1A08940F00200A08104E020
:104DC000A0894FF6FD710840A08170BD70B5044602
:104DD0000D46804884420BD07F48844208D07F48EB
:104DE000844205D07E48844202D07E48844200D16D
:104DF00005E040F22621AFF26420FEF78BF80DB1FA
:104E0000202D00D105E040F22721AFF27820FEF7F7
:104E100081F8208A4FF6DF7108402082208A2843DB
:104E2000208270BD70B504460D466A4884420BD09E
:104E30006948844208D06948844205D06848844261
:104E400002D06848844200D105E040F23921AFF237
:104E5000BC20FEF75FF80DB1012D00D105E040F256
:104E60003A21AFF2D020FEF755F825B1208A40F460
:104E70008040208204E0208A4BF6FF7108402082A7
:104E800070BD70B504460D46524884420BD052485E
:104E9000844208D05148844205D05148844202D00F
:104EA0005048844200D105E040F25321AFF21C305B
:104EB000FEF730F8B5F5007F00DA05E04FF4157124
:104EC000AFF23030FEF726F8C5F30800A08070BDC1
:104ED00010B504463F4884420BD03F48844208D076
:104EE0003E48844205D03E48844202D03D48844238
:104EF00000D105E04FF41971AFF26830FEF70AF8FF
:104F0000A088C0F3080010BD10B5044631488442A3
:104F10000BD03148844208D03048844205D0304814
:104F2000844202D02F48844200D105E04FF41D7125
:104F3000AFF2A030FDF7EEFFA08940F00100A081A4
:104F400010BD70B504460D462248844205D0224863
:104F5000844202D02148844200D105E04FF42171FF
:104F6000AFF2D030FDF7D6FF208BC0B22083208B6C
:104F700040EA0520208370BD70B504460D461548F3
:104F800084420BD01448844208D01448844205D08F
:104F90001348844202D01348844200D105E04FF404
:104FA0002671AFF21040FDF7B5FF208B00F47F4073
:104FB0002083208B2843208370BD70B504460D46A6
:104FC0000448844205D00448844202D00348844205
:104FD0000AD10FE000380140004400400048004082
:104FE000004C00400050004040F2AB21AFF25C406A
:104FF000FDF790FF0DB1012D00D105E04FF42B71AD
:10500000AFF27040FDF786FF25B1A08A40F0200086
:10501000A08204E0A08A4FF6DF710840A08270BD34
:1050200070B504460D46F948844205D0F8488442DC
:1050300002D0F848844200D105E04FF43171AFF25C
:10504000AC40FDF767FF0DB1012D00D105E040F246
:10505000C521AFF2C040FDF75DFF25B1A08A40F049
:105060001000A08204E0A08A4FF6EF710840A082F1
:1050700070BD70B504460D46E44884420BD0E44848
:10508000844208D0E348844205D0E348844202D0F9
:10509000E248844200D105E040F2DE21AFF20C503C
:1050A000FDF738FF0DB1012D00D105E040F2DF2101
:1050B000AFF22050FDF72EFF25B1A08A40F0080086
:1050C000A08204E0A08A4FF6F7710840A08270BD6C
:1050D00070B504460D46CD4884420BD0CC4884427E
:1050E00008D0CC48844205D0CB48844202D0CB487B
:1050F000844200D105E040F2FD21AFF26850FDF797
:1051000009FF0DB1012D00D105E040F2FE21AFF203
:105110007C50FDF7FFFE25B1A08940F40040A0813E
:1051200003E0A089C0F30E00A08170BD70B50446F5
:105130000D46B64884420BD0B548844208D0B548E5
:10514000844205D0B448844202D0B448844200D19D
:1051500005E04FF44671AFF2C450FDF7DBFE0DB130
:10516000012D00D105E040F21931AFF2D850FDF722
:10517000D1FE25B1A08A40F40060A08204E0A08A9C
:105180004FF2FF710840A08270BD70B504460D4615
:105190009E4884420BD09E48844208D09D48844259
:1051A00005D09D48844202D09C48844200D105E04D
:1051B00040F23531AFF22460FDF7ACFE042D00D093
:1051C00005B905E040F23631AFF23860FDF7A2FED6
:1051D000A08A4FF6FB710840A082A08A2843A082D3
:1051E00070BD70B504460D46884884420BD088488F
:1051F000844208D08748844205D08748844202D040
:105200008648844200D105E04FF45271AFF27C60D1
:10521000FDF780FE0DB1012D00D105E040F24931CE
:10522000AFF29060FDF776FE25B1A08A40F0020053
:10523000A08204E0A08A4FF6FD710840A08270BDF4
:1052400070B505460C460026704885420BD0704864
:10525000854208D06F48854205D06F48854202D00C
:105260006E48854200D105E040F26E31AFF2DC605D
:10527000FDF750FE012C13D0802C11D0402C0FD004
:10528000202C0DD0102C0BD0B4F5807F08D0B4F5B5
:10529000007F05D0082C03D0042C01D0022C00D1B3
:1052A00005E040F26F31AFF21470FDF733FEB4F554
:1052B000007F0FD15548854205D05548854202D020
:1052C0005448854200D105E040F27331AFF23C70A2
:1052D000FDF720FE2888204008B1012600E00026C6
:1052E000304670BD70B504460D46484884420BD028
:1052F0004748844208D04748844205D04648844203
:1053000002D04648844200D105E040F29E31AFF21F
:105310007C70FDF7FFFD4FF69F40284008B905B1AE
:1053200005E040F29F31AFF29470FDF7F3FD05F414
:105330000070B0F5007F0FD13448844205D0344866
:10534000844202D03348844200D105E040F2A331C8
:10535000AFF2C070FDF7DEFDE843208070BD2DE99F
:10536000F04705460C4600270026B046B1462748C0
:1053700085420BD02648854208D02648854205D074
:105380002548854202D02548854200D105E040F2FB
:10539000C131AFF60000FDF7BDFD282C20D040F252
:1053A000277084421CD040F22660844218D040F21C
:1053B0002550844214D040F22440844210D040F65C
:1053C000460084420CD040F66A10844208D0B4F5FE
:1053D000587F05D0B4F5187F02D0B4F5B07F00D166
:1053E00005E040F2C231AFF65400FDF793FD40F600
:1053F0006A1084421AD10548854205D00448854286
:1054000002D0044885420BD110E000000038014072
:105410000044004000480040004C00400050004064
:1054200040F2C631AFF69400FDF774FDC4F34218A4
:1054300004F01F06012000FA06F6B8F1010F02D1B0
:10544000A889064007E0B8F1020F02D1288A064079
:1054500001E0A88A06402712012000FA07F72888F1
:1054600007401EB117B14FF0010901E04FF00009EC
:105470004846BDE8F0872DE9F04104460D46002678
:105480000027244884420BD02348844208D0234874
:10549000844205D02248844202D02248844200D16E
:1054A00005E040F20A41AFF61410FDF733FD40F27B
:1054B000266085420BD040F22550854207D040F649
:1054C0004600854203D040F66A10854200D105E0CF
:1054D00040F20B41AFF64410FDF71CFD40F66A1098
:1054E00085420FD10B48844205D00B48844202D03C
:1054F0000A48844200D105E040F20F41AFF66C103B
:10550000FDF708FD2E120120B04087B2F84320803D
:10551000BDE8F081003801400044004000480040F0
:10552000004C00400050004010B50446B4F5E06F58
:105530000BD0B4F5C06F08D0B4F5A06F05D0B4F5AA
:10554000806F02D0B4F5407F00D103E063215DA0FD
:10555000FDF7E0FC614820436149086010BD2DE97A
:10556000F0410446002500270F26E07810B1E078CE
:10557000012800D103E0752152A0FDF7CBFC607833
:10558000102800DA03E076214EA0FDF7C3FCA078D6
:10559000102800DA03E077214AA0FDF7BBFCE07891
:1055A00000B34F48006800F4E060C0F5E060050A11
:1055B000C5F10407EE40607800FA07F5A0783040A6
:1055C00005432D01474822788554207800F01F01BB
:1055D0000120884021784911890001F1E021C1F8BA
:1055E000000109E0207800F01F01012088403E49B9
:1055F0002278521141F82200BDE8F08170B50446CE
:105600000D46B4F1005F02D0B4F1006F00D103E0A9
:105610009F212CA0FDF77EFC3448854200D203E098
:10562000A02128A0FDF776FC314905EA01002043BE
:105630002B49091F086070BD70B504460D46102C3B
:1056400003D0042C01D0022C00D103E0B2211DA014
:10565000FDF760FC0DB1012D00D103E0B32119A0CD
:10566000FDF758FC3DB11E48001D006820431C4951
:10567000091D086006E01A48001D0068A04318498B
:10568000091D086070BD10B50446042C01D0601DD2
:1056900000B903E0CA210BA0FDF73CFC042C08D1A3
:1056A0004FF0E020006940F004004FF0E021086175
:1056B00007E04FF0E020006920F004004FF0E02107
:1056C000086110BD2E2E5C4C6962726172795C7348
:1056D00072635C6D6973632E630000000000FA055D
:1056E0000CED00E000E400E080E100E0FFFF0F00CF
:1056F00080FFFF1F10B50446F84884422FD0B4F154
:10570000804F2CD0F648844229D0F648844226D0D7
:10571000F548844223D0F548844220D0F44884429E
:105720001DD0F44884421AD0F348844217D0F3487D
:10573000844214D0F248844211D0F24884420ED000
:10574000F14884420BD0F148844208D0F0488442AA
:1057500005D0F048844202D0EF48844200D103E0F3
:105760007D21EEA0FDF7D6FBDC48844208D1012163
:10577000C014FEF732FF0021E014FEF72EFFC4E054
:10578000B4F1804F08D101210846FEF74FFF0021F8
:105790000120FEF74BFFB8E0D148844208D1012137
:1057A0000220FEF743FF00210220FEF73FFFACE09E
:1057B000CC48844208D101210420FEF737FF0021A4
:1057C0000420FEF733FFA0E0C748844208D101213E
:1057D0000820FEF72BFF00210820FEF727FF94E0AA
:1057E000C248844208D101211020FEF71FFF00218A
:1057F0001020FEF71BFF88E0BD48844208D101213C
:105800002020FEF713FF00212020FEF70FFF7CE091
:10581000B848844208D101214014FEF7DEFE002181
:105820006014FEF7DAFE70E0B348844209D101212A
:10583000C804FEF7D2FE00214FF40020FEF7CDFE93
:1058400063E0AE48844209D101210805FEF7C5FE98
:1058500000214FF48010FEF7C0FE56E0A8488442B5
:1058600009D101214805FEF7B8FE00214FF40010D0
:10587000FEF7B3FE49E0A348844208D1012140204D
:10588000FEF7D4FE00214020FEF7D0FE3DE09E480A
:10589000844208D101218020FEF7C8FE002180202B
:1058A000FEF7C4FE31E09948844208D101218015F9
:1058B000FEF7BCFE0021A015FEF7B8FE25E09448D7
:1058C000844209D101210804FEF787FE00214FF42C
:1058D0008030FEF782FE18E08E48844209D1012113
:1058E0004804FEF77AFE00214FF40030FEF775FE03
:1058F0000BE08948844208D101218804FEF76DFE3F
:1059000000214FF48020FEF768FE10BD70B50446FC
:105910000D460026714884422FD0B4F1804F2CD020
:105920006F48844229D06F48844226D06E48844212
:1059300023D06E48844220D06D4884421DD06D48EB
:1059400084421AD06C48844217D06C48844214D0E8
:105950006B48844211D06B4884420ED06A4884421E
:105960000BD06A48844208D06948844205D069480F
:10597000844202D06848844200D103E0E72167A056
:10598000FDF7C8FA688858B16888102808D0688878
:10599000202805D06888402802D06888602800D177
:1059A00003E0E8215DA0FDF7B5FAE88838B1E888A2
:1059B000B0F5807F03D0E888B0F5007F00D103E028
:1059C000E92156A0FDF7A6FA2688444884420ED065
:1059D000484884420BD0B4F1804F08D040488442FC
:1059E00005D04048844202D03F48844204D14FF65B
:1059F0008F700640688806433C48844207D03C4884
:105A0000844204D04FF6FF400640E88806432680D3
:105A1000A888A08528882085304884420BD0354846
:105A2000844208D03A48844205D03A48844202D0A1
:105A30003948844201D1287A20860120A08270BD95
:105A40002DE9F04104460D464FF0000800260027DE
:105A50002248844229D0B4F1804F26D02048844285
:105A600023D02048844220D01F4884421DD02148A2
:105A700084421AD02048844217D02048844214D04F
:105A80001F48844211D01F4884420ED01E488442D1
:105A90000BD01E48844208D01D48844205D01D48C2
:105AA000844202D01C48844200D104E04FF48E713D
:105AB0001AA0FDF72FFA288870B1288810280BD07B
:105AC0002888202808D02888302805D028886028F1
:105AD00002D02888702831D136E00000002C014027
